:020000040800F2
:10000000800700208901000881250008351D0008AF
:100010007D250008850500089525000800000000E2
:100020000000000000000000000000009B0100082C
:1000300089050008000000009F010008A1010008D8
:10004000A3010008A3010008A3010008A301000800
:10005000A3010008A3010008A3010008A3010008F0
:10006000A3010008A3010008A3010008A3010008E0
:10007000A3010008A3010008A3010008A3010008D0
:10008000A3010008A3010008A3010008A3010008C0
:10009000A3010008A3010008A3010008A3010008B0
:1000A000A301000889250008A3010008A301000896
:1000B000A3010008A3010008A3010008A301000890
:1000C000A3010008A3010008A3010008A301000880
:1000D000A3010008A3010008A3010008A301000870
:1000E000A3010008A3010008A301000800F002F822
:1000F00000F03AF80AA090E8000C82448344AAF188
:100100000107DA4501D100F02FF8AFF2090EBAE885
:100110000F0013F0010F18BFFB1A43F0010318473B
:100120003026000050260000103A24BF78C878C15D
:10013000FAD8520724BF30C830C144BF04680C60ED
:10014000704700000023002400250026103A28BF35
:1001500078C1FBD8520728BF30C148BF0B60704739
:100160001FB51FBD10B510BD00F031F81146FFF7E7
:10017000F7FF02F011FA00F04FF803B4FFF7F2FFB7
:1001800003BC00F057F800000948804709480047C1
:10019000FEE7FEE7FEE7FEE7FEE7FEE7FEE7FEE737
:1001A000FEE7FEE704480549054A064B7047000094
:1001B00085250008ED000008800100208007002050
:1001C0008003002080030020704770477047754609
:1001D00000F02CF8AE4605006946534620F00700B3
:1001E000854618B020B5FFF7DDFFBDE820404FF091
:1001F00000064FF000074FF000084FF0000BAC4630
:10020000ACE8C009ACE8C009ACE8C009ACE8C0097A
:1002100021F007018D46704710B50446AFF300800A
:100220002046BDE81040FFF7A8BF00000048704717
:100230001800002001491820ABBEFEE7260002008E
:10024000704700002DE9F04385B089460A26012752
:100250000DF113085221072201230446CDE900873E
:10026000029600F0BDFC9DF8130001280BD1002080
:100270008DF813002046522107220123CDE9008783
:10028000029600F0C9FE0DF11200CDE900072046EC
:1002900052213D220123029600F0A2FC9DF812009B
:1002A00010F007008DF8120003D02046002100F066
:1002B000C9F801260A2720465221072201238DF87A
:1002C0001360CDE90086029700F0A6FE0DF111053E
:1002D0002046522108220123CDE90056029700F062
:1002E0007FFC9DF81100522100F0FC0040EA09005B
:1002F0008DF81100204608220123CDE9005602970F
:1003000000F08AFE9DF8120080B100208DF81300E5
:100310002046522107220123CDE90086029700F0F2
:100320007BFE9DF81210204600F08CF805B0BDE869
:10033000F0830000B0B582B000210446002500F033
:10034000C5F82046002100F07DF820460121FFF786
:1003500079FF20460021002200230095019500F03E
:1003600007F820460C2102B0BDE8B04000F06AB8A2
:100370002DE9F04F85B09946934688460A25012617
:100380000DF113075221072201230446CDE900761F
:10039000029500F025FC9DF8130001280BD10020E8
:1003A0008DF813002046522107220123CDE9007663
:1003B000029500F031FE0DF11200DDF838A0CDE914
:1003C0000006204652213D220123029500F008FC40
:1003D0009DF8120010F007008DF8120003D020469F
:1003E000002100F02FF80A2501260DF11107204603
:1003F00052213B220123CDE90076029500F0F0FB6B
:1004000048EA4B019DF8110041EA89010F9A41EA3F
:100410000A1100F0680041EAC21108438DF811008A
:10042000204652213B220123CDE90076029500F0BF
:10043000F3FD9DF8121011B1204600F003F805B04D
:10044000BDE8F08F2DE9F04184B088460A260127E7
:100450000DF10F055221072201230446CDE9005773
:10046000029600F0BDFB9DF80F0001280BD1002083
:100470008DF80F002046522107220123CDE90057B5
:10048000029600F0C9FD0DF10E05204652213D22D5
:100490000123CDE90057029600F0A2FB9DF80E0063
:1004A000522100F0F00040EA08008DF80E002046CE
:1004B0003D220123CDE90057029600F0ADFD132047
:1004C00000F0AAF904B0BDE8F08100002DE9F04188
:1004D00084B088460A2601270DF10F055221072214
:1004E00001230446CDE90057029600F079FB9DF800
:1004F0000F00012808D12046522107220123CDE90F
:100500000057029600F088FD0DF10E00CDE90007BE
:10051000204652213D220123029600F061FB9DF806
:100520000E0010F007008DF80E0003D020460021C9
:10053000FFF788FF0A2501260DF10D0720465221FD
:100540003E220123CDE90076029500F049FB9DF89B
:100550000D00522100F0FC0040EA08008DF80D006B
:1005600020463E220123CDE90076029500F054FD9D
:100570009DF80E1011B12046FFF764FF04B0BDE8EE
:10058000F0810000FEE700007047000010B590F811
:1005900020E0D0F800C0AEF1010EBEF1010FDCF892
:1005A00008E011D81EF0E05F18D0CEF3016EBEF166
:1005B000030F1DD100F1240101204FF400020B684C
:1005C0001A430A6010BD00BF00F1240101204FF45E
:1005D00080220B681A430A6010BD00BF00F124019D
:1005E00001204FF400120B681A430A6010BD00BFCF
:1005F000012000FA0EF01860886828B14B68CC68BA
:1006000044EAC303034303E00868CB6843EA40536A
:100610000CEB0E10C0F880310B69C0F88431097DF5
:10062000012905D100F5C2710B6843F480730B609A
:100630005168C0F88C11126800F5C071C0F88821AB
:10064000002001220B681A430A6010BDB0B5C8B182
:10065000044690F8200010B9204600F071F8206898
:10066000016841F00101016000F0F8F9054600BFA2
:1006700020684168C90707D100F0F0F9401B0B283A
:10068000F6D312E00120B0BD016821F00201016043
:1006900000F0E4F9054600BF2068416889070DD5E0
:1006A00000F0DCF9401B0B28F6D3606A052140F40A
:1006B00000306062012084F82010B0BD217E026805
:1006C000012922F0800208BF80320260617E026848
:1006D000012922F0400208BF40320260A17E026878
:1006E000012922F0200208BF20320260E17E026868
:1006F000012922F0100218BF10320260217F026827
:10070000012922F0080208BF08320260617F0268F6
:10071000012922F0040208BF04320260D4E901C2B8
:10072000D4E9033561691A432A431143ACF101024C
:100730001143C16100200121606284F82010B0BD26
:10074000B0B586B040F60004C4F201040068A4F518
:10075000244200219042059102D006B0B0BD00BFF6
:1007600041F21800C4F20200426802AD42F0007289
:100770004260426802F000720192019A026842F0FF
:1007800004020260006800F00400019001984FF438
:100790000060CDE9020104912046294600F050F89E
:1007A0004FF48050029002200390032005902046D1
:1007B000294600F045F806B0B0BD0000B0B50446CB
:1007C00090F8200001281DD1022084F82000206824
:1007D000016821F00101016000F040F9054600BF09
:1007E00020684068C00713D000F038F9401B0B2880
:1007F000F6D3606A40F400306062052084F820007F
:100800000120B0BD606A40F4002060620120B0BDEC
:1008100000206062B0BD0000B0B5044600F01EF9D3
:10082000054640F20000C2F200000078611C18BFCB
:10083000044400BF00F012F9401BA042FAD3B0BD3F
:100840002DE9F04F82B00E68002E00F0038140F2D7
:100850000C4C41F200424FF6FF7EC4F2010CC4F290
:100860000102042700240123C1F2100E4FF0000AF8
:100870004FF00009904208BF0327009745E000BFF2
:10088000012704F00C030F229A402BEA020207FA18
:1008900003F34FEA9A051A4346F82520D1F804B02D
:1008A00040F20045C4F201055FEACB322A6854BF2A
:1008B00022EA080242EA08022A606A685FEA8B3389
:1008C00054BF22EA080242EA08026A605FEACB23C8
:1008D000AA6854BF22EA080242EA08025FEA8B23B0
:1008E000AA60DCF800204FF0010354BF22EA08029E
:1008F00042EA0802CCF800200E680AF1010A36FA32
:100900000AF204F1040400F0A58003FA0AF816EADA
:10091000080FF1D04E68764512DC122E56D8DFE86B
:1009200006F0350B454955555555555555555555B1
:100930005555554D510000BFD1F80C9046E000BF11
:100940004FF6FF72C1F2210296420FDC0022C1F283
:10095000110296421AD00022C1F21202964215D01C
:100960000022C1F22102964210D02FE00022C1F2F3
:10097000220296420AD00022C1F23102964205D0EC
:100980000022C1F23202964220D100BF8A684AB1E9
:10099000012A14BFC0F81480C0F810804FF0080975
:1009A00014E000BF4FF0040910E000BFCA6802F174
:1009B00008090BE04FF0000908E000BFCA6802F127
:1009C000040903E0CA6802F10C0900BF224606468A
:1009D000BAF1080F24BF203A043637680F25954036
:1009E00027EA050509FA02F22A433260CA79D206DB
:1009F0007FF582AF41F21803C4F202031A6842F095
:100A000001021A601A6802F001020192019A40F292
:100A10000042C4F20102A2F57E762AF0030256F8E3
:100A200002B040F60002C4F20102904210D040F63B
:100A30000042C4F2010290423FF422AF41F20002B0
:100A4000C4F20102009F904208BF022719E700BFCD
:100A5000002716E702B0BDE8F08F000040F27810E2
:100A6000C2F200000068704770B5B8B3044690F851
:100A70003D0028B9002084F83C00204600F0BAFB75
:100A8000242084F83D002068016821F00101016004
:100A9000016841F400410160016821F400410160F6
:100AA00000F0C8FD48F28041C0F21E0140F600137C
:100AB000D4F804E088424FF00001C0F23D0348F250
:100AC000A16C4FF0000238BF01219842C0F2010C26
:100AD00038BF0122E64538BF0A460AB1012070BD81
:100AE0004DF68361C4F21B31A0FB01122168950C05
:100AF0004B684FF4967623F03F0343EA92437543E5
:100B000044F6D3564B60C1F262060B6AA5FB06564B
:100B1000B50923F03F03E64538BF950C6A1C1A431C
:100B20000A62CA6948F2A0664CF6FF73C0F2010679
:100B3000B64522EA03020BD801384FEA4E03B0FB58
:100B4000F3F001306FF31F30042898BF04201EE03B
:100B5000A368013863B119230EFB03F3B0FBF3F074
:100B600001306FF31F3078B100F5804008E000BF1E
:100B70000EEB4E03B0FBF3F001306FF31F3028B1E2
:100B800000F5004003E000BF012000E00120104319
:100B9000C8610868D4E9072320F0C0001043184357
:100BA0000860886848F2FF3204F10C0690434CCE8E
:100BB00018431043A5698860C86820F0FF003043DF
:100BC0002843C860086840F0010008600020202128
:100BD000206484F83D10206384F83E0070BD00005E
:100BE0002DE9F04F85B0044600201E4617460D46FD
:100BF0000490FFF733FF94F83D10202923D180465D
:100C000020688169890719D5FFF728FFA0EB080044
:100C10001928F5D900202021206384F83D1084F89C
:100C20003E00206C04F13C0940F0200020640220CA
:100C3000002189F8001005B0BDE8F08FA14619F831
:100C40003C1F012904D1022005B0BDE8F08F00BF90
:100C5000012289F800200368DDE90F1A0E9ADB07EC
:100C600003D1036843F001030360036823F40063C6
:100C70000360222084F83D00402084F83E000020DC
:100C8000206462626185608D294620850020CFF650
:100C9000FF70E06220463A463346CDF800A0CDF81A
:100CA000048001F049F818B1012005B0BDE8F08FCB
:100CB000208D022810D0012824D0002838D100200F
:100CC0000390206841690391816903910399016848
:100CD00041F40071016037E02068016841F400616F
:100CE0000160EFF3108072B6002003902068416924
:100CF0000391816903910399016821F48061016086
:100D000062B621E02068016821F480610160EFF3A0
:100D1000108072B6002003902068416903918169B8
:100D200003910399016841F40071016062B60BE020
:100D30002068016841F480610160002103914169EC
:100D40000391806903900398208D002800F023818F
:100D500040F2080B4BF289570AF10105C2F2000B71
:100D6000C1F2F847232680B2032819D8022845D0BB
:100D700001286FD1BAF1000F00F0FA802068014617
:100D800051F8142F520600F1F7800868C00600F1F0
:100D90002F81FFF763FEA0EB08005045EED91CE160
:100DA000BAF1000F12D000BF2068014651F8142F8D
:100DB000520610D40868C00600F11A81FFF74EFEF3
:100DC000A0EB08005045EFD907E100BF206841695A
:100DD000490640F1FB800069616A0870606A226818
:100DE000411C208D616201382085638D013B638544
:100DF00053695B0740F1CC801069BFE0206841690E
:100E0000490711D4002D00F09380BAF1000F00F0D3
:100E1000E280FFF723FEA0EB0800504500F2DD80E2
:100E2000206840694007F4D5EFF3108072B620685F
:100E3000616A026842F40072026000690870606AC8
:100E4000218D01306062481E2085608D01386085EB
:100E500062B668E020684169490710D4002D77D058
:100E6000BAF1000F00F0B780FFF7F8FDA0EB080023
:100E7000504500F2B280206841694907F4D5016805
:100E800021F480610160EFF3108072B62068616A1E
:100E900000690870606A218D013001396062218526
:100EA000618D01396185DBF80010C908A1FB0712CB
:100EB000110A71430491049901390491049900299C
:100EC00076D021684A6952071DD4049901390491EA
:100ED000049900296CD021684A69520713D40499F7
:100EE000013904910499002962D021684A695207A6
:100EF00009D40499013904910499002958D0216832
:100F00004A695207D7D50A6842F400720A60096933
:100F10000170606A218D01306062481E2085608DFD
:100F20000138608562B62068616A006926E000BF0A
:100F3000416949073FF578AF416949075CBF41699D
:100F40005FEA41713FF570AF41694907F0D56BE742
:100F50004169490793D4416949075CBF41695FEA28
:100F600041713FF58CAF41694907F1D587E700BF73
:100F700020684169490629D50069616A0870606A7C
:100F8000218D01306062481E2085618D01396185A7
:100F900001047FF4E8AE202084F83D00002084F8AE
:100FA0003E00002189F8001005B0BDE8F08F00BFB9
:100FB00000202021206384F83D1084F83E00206C3E
:100FC00040F02000206462B61EE000BF50F8141FFD
:100FD000C90601460CD4FFF741FD00202021206303
:100FE00084F83D1084F83E00206C40F020000AE0B8
:100FF0006FF01000086000202021206384F83D106D
:1010000084F83E00206C20640120002189F8001043
:1010100005B0BDE8F08F00002DE9F04383B099469C
:1010200016460F460446FFF719FD94F83D10202997
:101030001CD1054620688169890713D5FFF70EFD8D
:10104000401B1928F6D900202021206384F83D1088
:1010500084F83E00216C41F02001216484F83C00BA
:1010600004E000BF94F83C10012903D1022003B032
:10107000BDE8F083012284F83C200368DDE90B1809
:101080000A9ADB0703D1036843F001030360036896
:1010900023F400630360212084F83D00402084F89D
:1010A0003E000020206462626185608D39462085A3
:1010B0000020CFF6FF70E062204632464B46CDF866
:1010C0000080019500F0C8FF20B1012003B0BDE809
:1010D000F08300BF208D002850D0206808F1010661
:1010E000014651F8142F12062CD49EB1B8F1000F0E
:1010F0005AD000BF086840055ED4FFF7AFFC401B24
:10110000404556D82068014651F8142F1206F1D5F3
:1011100018E000BF0A6852054ED40A68120611D4BE
:101120000A68520548D40A6812060BD40A685205A8
:1011300042D40A68120605D40A6852053CD40A68EB
:101140001206E7D5626A114611F8013B0361238D4F
:101150006162591E2185678D013F678547697F0759
:101160000AD50F0408D051780161911C6162991E63
:101170002185628D013A62850904B1D1204641463C
:101180002A4601F0A3F838BB2068016841F40071D9
:101190000160202084F83D00002084F83E0084F89F
:1011A0003C0003B0BDE8F0830868400504D4FFF7B5
:1011B00055FC202004E000BF6FF48060086004202C
:1011C00000212022216384F83D2084F83E10226C07
:1011D0001043206484F83C10206C04287FF475AF21
:1011E0002068016841F400710160012003B0BDE88E
:1011F000F083000010B586B045F200410068C4F2EB
:10120000000100228842049202D006B010BD00BF47
:1012100041F21804C4F20204206840F00800206083
:10122000206800F0080001900198C0200290122070
:1012300003900320059001F5384002A9FFF700FB59
:10124000606840F400106060606800F40010019075
:10125000019806B010BD000040F2000040F2781185
:10126000C2F20000C2F2000100780A68104408606F
:101270007047000080B542F20000C4F2020001682D
:1012800041F010010160032000F0C2F80F2000F0CF
:1012900005F800F05BF8002080BD0000B0B586B016
:1012A00041F21801C4F202010A68044642F40062E5
:1012B0000A60096801A801F4006101910199694679
:1012C00000F096F900F0CAF94DF68361C4F21B31C3
:1012D000A0FB01014FF0FF3000EB914140F23010D4
:1012E00042F60042C2F20000C4F2010240F2E733CB
:1012F0000025C0E90021C0E902530561856100F0C5
:101300009FFB054610B1284606B0B0BD40F2301034
:10131000C2F2000000F00CFC05460028F3D11920B1
:1013200000F036F80F2C0DD8192021460022002598
:1013300000F042F840F20400C2F2000004602846C7
:1013400006B0B0BD0125284606B0B0BD82B041F25E
:101350001800C4F202000168022241F0010101609C
:10136000016801F0010101910199416841F080514A
:101370004160406800F08050009000980420C4F262
:101380000100016862F31A61016002B07047000059
:10139000002848BF7047C1B200F01F00012202FAC6
:1013A00000F04EF20012CEF2000242EAD10121F02A
:1013B000030108607047000010B54EF60C5CCEF2D9
:1013C000000CDCF80030C3F3022E8EF00704042C6E
:1013D00028BF0424BEF103034FF0FF3E0EFA04F4CD
:1013E00038BF0023A14399400EFA03F39A431143F7
:1013F00000F00F0200F160430901043A03F5644371
:101400006244002848BF02F10C03197010BD0000AF
:101410004EF60C51CEF200010A684FF6FF031A4057
:1014200060F30A2242F0806040F0FD70086070476F
:101430002DE9F04381B0002800F0858042F20008D9
:10144000C4F202080446D8F800000D4600F0070078
:1014500088420CD2D8F8000020F007002843C8F8D2
:101460000000D8F8000000F00700A8426BD1206807
:1014700041F204098107C4F2020917D5410705D5D5
:10148000D9F8001041F4E061C9F80010010705D552
:10149000D9F8001041F46051C9F80010D9F80010D3
:1014A000A26821F0F0011143C9F80010C00741D132
:1014B000D8F8000000F00700A8420CD9D8F80000C6
:1014C00020F007002843C8F80000D8F8000000F01A
:1014D0000700A84237D12068410707D5D9F8001086
:1014E000E26821F4E0611143C9F80010000708D553
:1014F000D9F80000216920F4605040EAC100C9F821
:101500000000D9F8002002F00C00082841F2002069
:10151000C0F27A0050D142F24073C2F38341C0F668
:101520000003595CD2033BD440F60010C0F23D00EA
:10153000484341E0606802280AD001282AD159F8BE
:10154000041C890308D4012001B0BDE8F08300BF6A
:1015500059F8041C8901F6D5D9F8001021F00301CF
:101560000843C9F80000FFF779FA064641F28837C8
:10157000D9F80000616800F00C00B0EB810F97D043
:10158000FFF76CFA801BB842F2D9032001B0BDE826
:10159000F08300BF59F8041C8907D4D5DCE700BFED
:1015A000D9F8002042F22673C2F34042C0F600038D
:1015B0009A5C4843B0FBF2F0D9F8001042F228726E
:1015C000C1F30311C0F60002515C40F2080220FA98
:1015D00001F140F20400C2F200000068C2F2000211
:1015E0001160FFF75BFE002001B0BDE8F083000052
:1015F0000F22026041F20402C4F20202136803F0F7
:1016000003034360136803F0F0038360136803F47B
:10161000E063C36012684FF4E06303EAD202026140
:1016200042F20000C4F20200006800F00700086007
:101630007047000040F2080041F20401C2F20000CD
:10164000C4F202010068096842F23872C1F3022153
:10165000C0F60002515CC8407047000040F208002C
:1016600041F20401C2F20000C4F2020100680968FC
:1016700042F23872C1F3C221C0F60002515CC84088
:10168000704700002DE9F04182B0002868D0044680
:10169000007841F20006C007C4F2020625D0706847
:1016A00000F00C0004281BD0706800F00C00082823
:1016B00002D17068C00313D46068002800F068810C
:1016C000B0F5A02F00F07C81B0F5803F00F07C8168
:1016D000306820F480303060306820F4802076E17B
:1016E0003068800301D56068D0B32078800718D5B2
:1016F000706810F00C0F07D0706800F00C0008281C
:101700006ED17068C0036BD43068800702D5206941
:10171000012825D13068616920F0F80040EAC10055
:101720003060207800071FD42078400732D4E56964
:1017300095B1706800F00C00082840F08F80012DF2
:101740000ED07068216A00F480328A4208D1616A42
:1017500000F47010884203D1002002B0BDE8F0818F
:10176000012002B0BDE8F081A069002862D000200D
:10177000C4F242200121C0F88014FFF76FF905463A
:10178000706A800700F18C80FFF768F9401B02281F
:10179000F6D92AE1F06910F0805808D1F06940F0DC
:1017A0008050F061F06900F080500090009847F29E
:1017B0000007C4F200073868C00529D4386840F42F
:1017C00080703860FFF74AF9054600BF3868C005E9
:1017D0001ED4FFF743F9401B6428F7D905E100BF89
:1017E0002069002840F20000C4F2422000F082800C
:1017F00001210160FFF732F9054600BF306880071C
:101800003FF588AFFFF72AF9401B0228F6D9ECE034
:10181000E068002800F08080052800F0978001280B
:1018200000F09880306A20F001003062306A20F0C9
:10183000040092E00020C4F242200021C0F880148D
:10184000FFF70CF9054600BF706A80077FF56CAFA3
:10185000FFF704F9401B0228F6D9C6E00027C4F2BE
:10186000422700203866FFF7F9F8022D05460BD114
:101870003068800140F1BE80FFF7F0F8401B02287D
:101880004FF00300F4D968E7306880017FF564AF5A
:10189000FFF7E4F8401B02284FF00300F4D95CE79F
:1018A00040F20800C2F20000006844F6D351C1F2D1
:1018B0006201A0FB0101480A019000BF00BF01982E
:1018C000411E002801913FF42FAF00BF0198411E37
:1018D000002801913FF428AF00BF0198411E002865
:1018E00001913FF421AF00BF0198411E00280191F2
:1018F000E4D119E700210160FFF7B0F8054600BF09
:10190000306880077FF50DAFFFF7A8F8401B02286D
:101910004FF00300F4D920E7306A20F00100306274
:10192000306A20F004003062FFF798F8054641F273
:10193000883700BF306A800720D5FFF78FF8401B3B
:10194000B8424FF00300F5D907E700BF306A40F016
:1019500004003062306A40F001003062FFF77EF828
:10196000054641F2883700BF306A800706D4FFF78A
:1019700075F8401BB842F7D937E000BFB8F1000F47
:101980007FF4D5AEF06920F08050F061CFE600BF63
:10199000306820F480303060306820F4802030607F
:1019A000FFF75CF8054600BF306880037FF59DAE09
:1019B000FFF754F8401B64284FF00300F4D9CCE63D
:1019C000306840F480203060306840F4803030600F
:1019D000FFF744F8054600BF306880033FF585AE49
:1019E000FFF73CF8401B6428F6D9032002B0BDE89D
:1019F000F08100BF206AB0F5803F05D17168A26810
:101A000021F40031114371607168626A21F474112C
:101A100011430843706001203866FFF71FF8044641
:101A2000306880013FF598AEFFF718F8001B0228D8
:101A30004FF00300F4D990E67047000070470000B3
:101A4000002804BF0120704710B5044690F83D00FF
:101A500028B9002084F83C00204600F067F80220F6
:101A600084F83D00206840F2FF730268C4F200036E
:101A700042F6004C9842C4F2010C15DCB0F1804FE4
:101A80001AD040F20041C4F20001884214D09842BA
:101A900018DCB0F1804F1DD040F20041C4F20001CB
:101AA000884217D01AE000BF604505D040F600011B
:101AB000C4F200018842EAD1A16822F070020A4310
:101AC0009842E6DD604505D040F60001C4F2000111
:101AD000884203D1216922F440720A43A36922F0AB
:101AE0008001D4F804E0E268194360450160C262F5
:101AF000C0F828E002D16169CCF8301001214161C1
:101B0000002084F8461084F83E1084F83F1084F8D2
:101B1000401084F8411084F8421084F8431084F88F
:101B2000441084F8451084F83D1010BD7047000043
:101B300090F83D1001291CBF01207047022180F858
:101B40003D10006840F2FF72C168C4F2000290428A
:101B500041F00101C16009DCB0F1804F12D040F2C8
:101B60000041C4F2000188420CD012E042F600416C
:101B7000C4F20101884205D040F60001C4F2000120
:101B8000884206D1816801F00701062904BF0020C0
:101B90007047016841F001010160002070470000BA
:101BA0007047000010B5016804460869800744BF0B
:101BB000C8685FEA807039D40869400744BFC868C4
:101BC0005FEA40703ED40869000744BFC8685FEA16
:101BD000007045D40869C00644BFC8685FEAC060A9
:101BE0004AD40869C0071CBFC8685FEAC07051D1F9
:101BF0000869000644BFC8685FEA006052D40869FB
:101C0000400644BFC8685FEA406053D40869800654
:101C100046BFC8685FEA806010BD6FF020022046B2
:101C20000A61BDE81040FFF709BF00BF6FF0020076
:101C30000861012020778869800743D02046FFF79C
:101C4000AFFF45E06FF0040008610220207788694B
:101C500010F4407F40D02046FFF7A2FF42E000BFD3
:101C60006FF00800086104202077C86980073DD024
:101C70002046FFF795FF3FE06FF010000861082055
:101C80002077C86910F4407F3AD02046FFF788FFDC
:101C90003CE000BF6FF001000861204600F03EF814
:101CA0002168A5E76FF0800008612046FFF7C4FEB9
:101CB0002168A4E76FF040000861204600F038F882
:101CC0002168A3E7204600F025F8204600F024F81C
:101CD0002168002020776FE7204600F01BF820469F
:101CE00000F01AF82168002020776CE7204600F009
:101CF00011F8204600F010F821680020207769E7ED
:101D0000204600F007F8204600F006F82168002081
:101D1000207766E77047000070470000006842F6D1
:101D20000041C4F20101884218BF7047FFF794BA1E
:101D300070470000FEE700002DE9F04383B0044641
:101D4000006899460368904643F480620260026826
:101D50000B9D42F48072026042690A9ED2070F46D0
:101D60001DD1711C11D0002E00F03681FEF776FED9
:101D7000401BB04200F2328120684169C907F5D0AA
:101D80000DE000BF4169C90709D14169C90706D102
:101D90004169C90704BF41695FEAC171F2D007F028
:101DA000FE0707614169890738D44169721C01F453
:101DB000806111D049BB002E00F03A81FEF74EFE43
:101DC000401BB04200F2368120684169890725D462
:101DD00041694905F2D518E0B9B9416989071DD4AF
:101DE0004169490511D44169890717D441694905F9
:101DF0000BD44169890711D44169490505D441696A
:101E000089070BD441694905E7D5016841F40071A0
:101E100001606FF48061416104200CE100210291B6
:101E2000014651F8142F02924A680292029A0A68F7
:101E3000120620D4002E00F0AB80721C51D10A682B
:101E4000520500F1AD800A68120614D40A685205E2
:101E500000F1A6800A6812060DD40A68520500F146
:101E60009F800A68120606D40A68520500F198801D
:101E70000A681206E3D5B9F1010F45D04FEA1821DF
:101E80000161014651F8142F12063DD4002E00F0D6
:101E90007F80721C2AD10A68520500F181800A688D
:101EA000120631D40A6852057AD40A6812062BD475
:101EB0000A68520574D40A68120625D40A685205C5
:101EC0006ED40A681206E6D51EE000BFFEF7C6FD16
:101ED000401BB04261D82068014651F8142F120609
:101EE000C9D408684005F1D55AE000BF086840052C
:101EF00056D4FEF7B3FD401BB0424ED820680146D1
:101F000051F8142F1206F1D55FFA88F101610146EC
:101F100051F8142F12061AD4D6B3721C33D10A68A2
:101F200052053DD40A68120611D40A68520537D406
:101F30000A6812060BD40A68520531D40A681206E0
:101F400005D40A6852052BD40A681206E7D5016841
:101F5000002241F48071016020464FF001113346A8
:101F6000009500F007FA002850D02068006844E08F
:101F7000FEF774FD401BB0420FD82068014651F8AF
:101F8000142F1206E3D408684005F1D508E000BF1D
:101F90000868400504D4FEF761FD202004E000BF7E
:101FA0006FF480600860042000212022216384F8FF
:101FB0003D2084F83E10226C1043206484F83C10CD
:101FC000206C042843D12068016841F4007101604D
:101FD000012003B0BDE8F083FEF740FD0020202182
:101FE000206384F83D1084F83E00216C41F020010C
:101FF0002164216884F83C000868C00544BF4FF4A0
:1020000000702064032003B0BDE8F083206847F02F
:10201000010101610221C0F20101204632462B4636
:1020200000F050FA002818BF012003B0BDE8F0838B
:10203000FEF714FD202000212022216384F83D209A
:1020400084F83E10226C1043206484F83C10012078
:1020500003B0BDE8F08300002DE9F04381B00446F1
:10206000006890460268099D42F4807202604269ED
:10207000089E9946D2070F461DD1711C11D0002E23
:1020800000F0D280FEF7EAFC401BB04200F2CE80A6
:1020900020684169C907F5D00DE000BF4169C90753
:1020A00009D14169C90706D14169C90704BF41691E
:1020B0005FEAC171F2D007F0FE0101614169890751
:1020C00038D44169721C01F4806111D049BB002EE3
:1020D00000F0E880FEF7C2FC401BB04200F2E48052
:1020E00020684169890725D441694905F2D518E07E
:1020F000B9B9416989071DD44169490511D44169BC
:10210000890717D4416949050BD44169890711D45E
:102110004169490505D4416989070BD441694905DD
:10212000E7D5016841F4007101606FF4806141619D
:102130000420BAE000210091014651F8142F0092CA
:102140004A680092009A0A6812061ED4002E00F017
:102150008580721C4DD10A68520500F187800A689B
:10216000120612D40A68520500F180800A6812062D
:102170000BD40A68520579D40A68120605D40A6895
:10218000520573D40A681206E5D5B9F1010F43D0A0
:102190004FEA18210161014651F8142F12063BD471
:1021A000002E5BD0721C29D10A6852055ED40A68E1
:1021B000120631D40A68520558D40A6812062BD484
:1021C0000A68520552D40A68120625D40A685205D4
:1021D0004CD40A681206E7D51EE000BFFEF73EFCAD
:1021E000401BB0423FD82068014651F8142F120618
:1021F000CBD408684005F1D538E000BF0868400539
:1022000034D4FEF72BFC401BB0422CD8206801468A
:1022100051F8142F1206F1D55FFA88F10161002000
:1022200001B0BDE8F08300BFFEF718FC00202021BC
:10223000206384F83D1084F83E00216C41F02001B9
:102240002164216884F83C000868C00544BF4FF44D
:1022500000702064032001B0BDE8F08308684005E9
:1022600004D4FEF7FBFB202004E000BF6FF4806085
:102270000860042000212022216384F83D2084F896
:102280003E10226C1043206484F83C10206C04281B
:1022900017D12068016841F400710160012001B08C
:1022A000BDE8F083FEF7DAFB202000212022216325
:1022B00084F83D2084F83E10226C1043206484F89A
:1022C0003C10012001B0BDE8F083000070B5036848
:1022D000044653F8140F400737D40E46F1B1701C72
:1022E00024D100BF1868400532D4186840072CD4A8
:1022F000186840052CD41868400726D41868400593
:1023000026D41868400720D41868400520D41868DF
:1023100040074FF0000048BF70BDE3E71868400574
:1023200016D4FEF79BFB202016E000BF154600BF29
:10233000186840050CD4FEF791FB401BB042F2D860
:10234000236853F8140F4007F2D5002070BD00BF7A
:102350006FF480601860042000212022216384F83B
:102360003D2084F83E10226C10432064012084F844
:102370003C1070BD2DE9F04105461446DDF818808B
:1023800001F47F002A681E46B0F5803F8FB241D12C
:1023900050693840C01BB0FA80F04009A0427BD1A0
:1023A000701C2DD0002E7BD0FEF758FBA0EB080050
:1023B000B04277D8286840693840C01BB0FA80F036
:1023C0004009A042F0D00020BDE8F08150693840BB
:1023D000C01BB0FA80F04009A0425DD1506938407E
:1023E000C01BB0FA80F04009A04255D15069384076
:1023F000C01BB0FA80F04009A0424FF000005FD14E
:1024000050693840C01BB0FA80F04009A042DDD0CE
:1024100042E000BF90693840C01BB0FA80F040092C
:10242000A04239D1701C1FD0D6B300BFFEF716FBF7
:10243000A0EB0800B04235D8286880693840C01B3E
:10244000B0FA80F04009A042F0D00020BDE8F08151
:1024500090693840C01BB0FA80F04009A0424FF0AC
:10246000000018BFBDE8F08190693840C01BB0FA89
:1024700080F04009A0420FD190693840C01BB0FAEB
:1024800080F04009A04207D190693840C01BB0FAE3
:1024900080F04009A042DBD00020BDE8F08100BF01
:1024A000FEF7DCFA00202021286385F83D1085F82E
:1024B0003E00296C41F02001296485F83C00012090
:1024C000BDE8F081F0B581B0044600681D4643695F
:1024D0008FB203EA0701B94202D1002001B0F0BD7A
:1024E00041691646013201F480610FD059BB9EB399
:1024F000FEF7B4FA401BB04230D820684169394039
:10250000B942EAD041694905F2D51CE0D9B941691F
:102510003940B942E1D04169490514D44169394093
:10252000B942DAD0416949050DD441693940B9420F
:10253000D3D04169490506D441693940B942CCD06C
:1025400041694905E3D5016841F4007101606FF408
:1025500080614161042002E0FEF780FA2020002122
:102560002022216384F83D2084F83E10226C104321
:10257000206484F83C10012001B0F0BDFEE70000AB
:10258000FEE700007047000040F23010C2F2000089
:10259000FFF708BBFEE7000090B0FEF76BFE0024DB
:1025A0000120CDE90B44CDE9094406900A904FF48F
:1025B000E0104FF4803102250F9006A8CDE90714F2
:1025C000CDE90D51FFF75EF820B1EFF3108072B640
:1025D000FEE700BF0F20CDE901054FF48060CDE993
:1025E000040401A802210394FEF722FF20B1EFF3B7
:1025F000108072B6FEE700BF41F21800C4F202007C
:10260000016845F2004441F0200101600168C4F214
:10261000000401F02001069106990168002541F0AF
:102620000401016001684FF4804201F00401069149
:102630000699016841F008010160006848F2A06154
:1026400000F008000690069840F2DC00C2F200009C
:10265000C0F20101C0E90041C0E90255C0E904250A
:10266000C0E906550562FEF7FFF928B1EFF31080C7
:1026700072B600BFFEE700BF04F5805140F2780457
:10268000C2F20004204640F83C1F12214FF44022C1
:102690004FF48013C0E90115C0E90352C0E90535C4
:1026A0008583FDF7D3FF28B1EFF3108072B600BF2A
:1026B000FEE700BF40F2DC00C2F20000FDF73AFE88
:1026C0004FF4A27000210822C4E90301072004F19D
:1026D0003C05E2610422C4E909012846C4E9051168
:1026E000C4E90B116263FEF769F840F20C06C2F20E
:1026F000000604F10C0804F1240700BFD6E901012B
:10270000224642F8040FA160284641462346FDF7C1
:102710003DFF6420FEF780F82846394632462346BE
:10272000FDF734FFEAE701020000000000000000AE
:102730000102030406070809000000000102030467
:1027400002030405060708090A0B0C0D0E0F1010F2
:102750007027000800000020180000002801000871
:1027600088270008180000206807000044010008BE
:1027700001000000100000000024F40000004841A7
:0827800000005841000068410F
:04000005080000ED02
:00000001FF
